{
  "contractName": "Deezmine",
  "abi": [
    {
      "anonymous": false,
      "inputs": [
        {
          "indexed": false,
          "internalType": "address",
          "name": "_id",
          "type": "address"
        },
        {
          "indexed": false,
          "internalType": "uint256",
          "name": "date",
          "type": "uint256"
        },
        {
          "indexed": false,
          "internalType": "string",
          "name": "_message",
          "type": "string"
        }
      ],
      "name": "hasBeenRecover",
      "type": "event"
    },
    {
      "anonymous": false,
      "inputs": [
        {
          "indexed": false,
          "internalType": "address",
          "name": "_id",
          "type": "address"
        },
        {
          "indexed": false,
          "internalType": "uint256",
          "name": "date",
          "type": "uint256"
        },
        {
          "indexed": false,
          "internalType": "string",
          "name": "_message",
          "type": "string"
        }
      ],
      "name": "hasBeenStolenOrLost",
      "type": "event"
    },
    {
      "anonymous": false,
      "inputs": [
        {
          "indexed": false,
          "internalType": "address",
          "name": "_id",
          "type": "address"
        },
        {
          "indexed": false,
          "internalType": "uint256",
          "name": "_date",
          "type": "uint256"
        },
        {
          "indexed": false,
          "internalType": "string",
          "name": "_details",
          "type": "string"
        }
      ],
      "name": "historyEvent",
      "type": "event"
    },
    {
      "anonymous": false,
      "inputs": [
        {
          "indexed": false,
          "internalType": "address",
          "name": "_id",
          "type": "address"
        },
        {
          "indexed": false,
          "internalType": "uint256",
          "name": "_date",
          "type": "uint256"
        },
        {
          "indexed": false,
          "internalType": "string",
          "name": "_name",
          "type": "string"
        },
        {
          "indexed": false,
          "internalType": "string",
          "name": "_serialNumber",
          "type": "string"
        }
      ],
      "name": "newInstrument",
      "type": "event"
    },
    {
      "anonymous": false,
      "inputs": [
        {
          "indexed": false,
          "internalType": "address",
          "name": "_id",
          "type": "address"
        },
        {
          "indexed": false,
          "internalType": "uint256",
          "name": "date",
          "type": "uint256"
        },
        {
          "indexed": false,
          "internalType": "string",
          "name": "_ownerNickName",
          "type": "string"
        }
      ],
      "name": "newOwner",
      "type": "event"
    },
    {
      "anonymous": false,
      "inputs": [
        {
          "indexed": false,
          "internalType": "address",
          "name": "_id",
          "type": "address"
        },
        {
          "indexed": false,
          "internalType": "uint256",
          "name": "date",
          "type": "uint256"
        },
        {
          "indexed": false,
          "internalType": "string",
          "name": "_location",
          "type": "string"
        }
      ],
      "name": "warningAlarm",
      "type": "event"
    },
    {
      "constant": true,
      "inputs": [
        {
          "internalType": "address",
          "name": "",
          "type": "address"
        }
      ],
      "name": "birthDateOfInstrument",
      "outputs": [
        {
          "internalType": "uint256",
          "name": "",
          "type": "uint256"
        }
      ],
      "payable": false,
      "stateMutability": "view",
      "type": "function"
    },
    {
      "constant": true,
      "inputs": [
        {
          "internalType": "address",
          "name": "",
          "type": "address"
        }
      ],
      "name": "brand",
      "outputs": [
        {
          "internalType": "string",
          "name": "",
          "type": "string"
        }
      ],
      "payable": false,
      "stateMutability": "view",
      "type": "function"
    },
    {
      "constant": true,
      "inputs": [
        {
          "internalType": "address",
          "name": "",
          "type": "address"
        }
      ],
      "name": "exist",
      "outputs": [
        {
          "internalType": "bool",
          "name": "",
          "type": "bool"
        }
      ],
      "payable": false,
      "stateMutability": "view",
      "type": "function"
    },
    {
      "constant": true,
      "inputs": [
        {
          "internalType": "address",
          "name": "",
          "type": "address"
        }
      ],
      "name": "instrumentType",
      "outputs": [
        {
          "internalType": "string",
          "name": "",
          "type": "string"
        }
      ],
      "payable": false,
      "stateMutability": "view",
      "type": "function"
    },
    {
      "constant": true,
      "inputs": [
        {
          "internalType": "address",
          "name": "",
          "type": "address"
        }
      ],
      "name": "isStolenOrLost",
      "outputs": [
        {
          "internalType": "bool",
          "name": "",
          "type": "bool"
        }
      ],
      "payable": false,
      "stateMutability": "view",
      "type": "function"
    },
    {
      "constant": true,
      "inputs": [
        {
          "internalType": "address",
          "name": "",
          "type": "address"
        }
      ],
      "name": "model",
      "outputs": [
        {
          "internalType": "string",
          "name": "",
          "type": "string"
        }
      ],
      "payable": false,
      "stateMutability": "view",
      "type": "function"
    },
    {
      "constant": true,
      "inputs": [
        {
          "internalType": "address",
          "name": "",
          "type": "address"
        }
      ],
      "name": "name",
      "outputs": [
        {
          "internalType": "string",
          "name": "",
          "type": "string"
        }
      ],
      "payable": false,
      "stateMutability": "view",
      "type": "function"
    },
    {
      "constant": true,
      "inputs": [
        {
          "internalType": "address",
          "name": "",
          "type": "address"
        }
      ],
      "name": "numberOfInstrumentOwnerGot",
      "outputs": [
        {
          "internalType": "uint256",
          "name": "",
          "type": "uint256"
        }
      ],
      "payable": false,
      "stateMutability": "view",
      "type": "function"
    },
    {
      "constant": true,
      "inputs": [
        {
          "internalType": "address",
          "name": "",
          "type": "address"
        }
      ],
      "name": "numberOfPictures",
      "outputs": [
        {
          "internalType": "uint256",
          "name": "",
          "type": "uint256"
        }
      ],
      "payable": false,
      "stateMutability": "view",
      "type": "function"
    },
    {
      "constant": true,
      "inputs": [
        {
          "internalType": "address",
          "name": "",
          "type": "address"
        }
      ],
      "name": "numberOfStories",
      "outputs": [
        {
          "internalType": "uint256",
          "name": "",
          "type": "uint256"
        }
      ],
      "payable": false,
      "stateMutability": "view",
      "type": "function"
    },
    {
      "constant": true,
      "inputs": [
        {
          "internalType": "address",
          "name": "",
          "type": "address"
        }
      ],
      "name": "owner",
      "outputs": [
        {
          "internalType": "address",
          "name": "",
          "type": "address"
        }
      ],
      "payable": false,
      "stateMutability": "view",
      "type": "function"
    },
    {
      "constant": true,
      "inputs": [
        {
          "internalType": "address",
          "name": "",
          "type": "address"
        }
      ],
      "name": "ownerMail",
      "outputs": [
        {
          "internalType": "string",
          "name": "",
          "type": "string"
        }
      ],
      "payable": false,
      "stateMutability": "view",
      "type": "function"
    },
    {
      "constant": true,
      "inputs": [
        {
          "internalType": "address",
          "name": "",
          "type": "address"
        }
      ],
      "name": "ownerNickName",
      "outputs": [
        {
          "internalType": "string",
          "name": "",
          "type": "string"
        }
      ],
      "payable": false,
      "stateMutability": "view",
      "type": "function"
    },
    {
      "constant": true,
      "inputs": [
        {
          "internalType": "address",
          "name": "",
          "type": "address"
        },
        {
          "internalType": "uint256",
          "name": "",
          "type": "uint256"
        }
      ],
      "name": "ownerOf",
      "outputs": [
        {
          "internalType": "address",
          "name": "",
          "type": "address"
        }
      ],
      "payable": false,
      "stateMutability": "view",
      "type": "function"
    },
    {
      "constant": true,
      "inputs": [
        {
          "internalType": "address",
          "name": "",
          "type": "address"
        },
        {
          "internalType": "uint256",
          "name": "",
          "type": "uint256"
        }
      ],
      "name": "pictures",
      "outputs": [
        {
          "internalType": "string",
          "name": "",
          "type": "string"
        }
      ],
      "payable": false,
      "stateMutability": "view",
      "type": "function"
    },
    {
      "constant": true,
      "inputs": [
        {
          "internalType": "address",
          "name": "",
          "type": "address"
        }
      ],
      "name": "serialNumber",
      "outputs": [
        {
          "internalType": "string",
          "name": "",
          "type": "string"
        }
      ],
      "payable": false,
      "stateMutability": "view",
      "type": "function"
    },
    {
      "constant": true,
      "inputs": [
        {
          "internalType": "address",
          "name": "",
          "type": "address"
        },
        {
          "internalType": "uint256",
          "name": "",
          "type": "uint256"
        }
      ],
      "name": "storieOfInstrument",
      "outputs": [
        {
          "internalType": "string",
          "name": "",
          "type": "string"
        }
      ],
      "payable": false,
      "stateMutability": "view",
      "type": "function"
    },
    {
      "constant": false,
      "inputs": [
        {
          "internalType": "string",
          "name": "_brand",
          "type": "string"
        },
        {
          "internalType": "string",
          "name": "_model",
          "type": "string"
        },
        {
          "internalType": "string",
          "name": "_instrumentType",
          "type": "string"
        },
        {
          "internalType": "string",
          "name": "_name",
          "type": "string"
        },
        {
          "internalType": "string",
          "name": "_serialNumber",
          "type": "string"
        },
        {
          "internalType": "address payable",
          "name": "_id",
          "type": "address"
        },
        {
          "internalType": "string",
          "name": "_picture",
          "type": "string"
        }
      ],
      "name": "checkInInstrument",
      "outputs": [],
      "payable": true,
      "stateMutability": "payable",
      "type": "function"
    },
    {
      "constant": false,
      "inputs": [
        {
          "internalType": "string",
          "name": "_ownerMail",
          "type": "string"
        },
        {
          "internalType": "string",
          "name": "_ownerNickName",
          "type": "string"
        },
        {
          "internalType": "address",
          "name": "_ownerAdrress",
          "type": "address"
        }
      ],
      "name": "takeOwnership",
      "outputs": [],
      "payable": false,
      "stateMutability": "nonpayable",
      "type": "function"
    },
    {
      "constant": false,
      "inputs": [
        {
          "internalType": "address",
          "name": "_id",
          "type": "address"
        },
        {
          "internalType": "address",
          "name": "_futurOwner",
          "type": "address"
        },
        {
          "internalType": "string",
          "name": "_ownerNickname",
          "type": "string"
        },
        {
          "internalType": "string",
          "name": "_ownerMail",
          "type": "string"
        }
      ],
      "name": "transfer",
      "outputs": [],
      "payable": false,
      "stateMutability": "nonpayable",
      "type": "function"
    },
    {
      "constant": false,
      "inputs": [
        {
          "internalType": "address",
          "name": "_id",
          "type": "address"
        },
        {
          "internalType": "string",
          "name": "_newOwnerNickName",
          "type": "string"
        },
        {
          "internalType": "string",
          "name": "_newOwnerMail",
          "type": "string"
        }
      ],
      "name": "changeOwnerName",
      "outputs": [],
      "payable": false,
      "stateMutability": "nonpayable",
      "type": "function"
    },
    {
      "constant": false,
      "inputs": [
        {
          "internalType": "address",
          "name": "_id",
          "type": "address"
        },
        {
          "internalType": "string",
          "name": "_ipfsHash",
          "type": "string"
        }
      ],
      "name": "addPictureWithWallet",
      "outputs": [],
      "payable": false,
      "stateMutability": "nonpayable",
      "type": "function"
    },
    {
      "constant": false,
      "inputs": [
        {
          "internalType": "string",
          "name": "_ipfsHash",
          "type": "string"
        }
      ],
      "name": "addPicture",
      "outputs": [],
      "payable": false,
      "stateMutability": "nonpayable",
      "type": "function"
    },
    {
      "constant": false,
      "inputs": [
        {
          "internalType": "address",
          "name": "_id",
          "type": "address"
        },
        {
          "internalType": "string",
          "name": "_message",
          "type": "string"
        }
      ],
      "name": "declareStolenOrLost",
      "outputs": [],
      "payable": false,
      "stateMutability": "nonpayable",
      "type": "function"
    },
    {
      "constant": false,
      "inputs": [
        {
          "internalType": "address",
          "name": "_id",
          "type": "address"
        },
        {
          "internalType": "string",
          "name": "_message",
          "type": "string"
        }
      ],
      "name": "declareRecover",
      "outputs": [],
      "payable": false,
      "stateMutability": "nonpayable",
      "type": "function"
    },
    {
      "constant": false,
      "inputs": [
        {
          "internalType": "address",
          "name": "_id",
          "type": "address"
        },
        {
          "internalType": "string",
          "name": "_details",
          "type": "string"
        }
      ],
      "name": "createStory",
      "outputs": [],
      "payable": false,
      "stateMutability": "nonpayable",
      "type": "function"
    },
    {
      "constant": false,
      "inputs": [
        {
          "internalType": "string",
          "name": "_details",
          "type": "string"
        }
      ],
      "name": "createStoryWithKey",
      "outputs": [],
      "payable": false,
      "stateMutability": "nonpayable",
      "type": "function"
    }
  ],
  "bytecode": "0x608060405234801561001057600080fd5b50614adf806100206000396000f3fe60806040526004361061019c5760003560e01c806354bb5ab0116100ec578063b90e5e201161008a578063d930ec8311610064578063d930ec83146116fd578063e16f6ca6146117c7578063e1b2c5511461182c578063f8bf5e22146119145761019c565b8063b90e5e2014611445578063bd63a2af146114aa578063c37d83b71461157e5761019c565b8063620a5374116100c6578063620a537414610d7d578063666e1b391461114b5780637ff6c442146111dc5780638219efec146112a65761019c565b806354bb5ab014610be757806355ca10d914610caf5780635b5462c814610d185761019c565b80632725f9e011610159578063372467991161013357806337246799146109025780633b18b439146109ea5780633df18d2a14610ab45780634dfefc4b14610b7e5761019c565b80632725f9e0146106ff57806329b42a00146107c957806330b167ee1461082e5761019c565b806301984892146101a15780630285fbfb1461026b5780630e1a3018146103535780631d053baf1461041d5780631ee8b633146104e55780631f29d2dc14610664575b600080fd5b3480156101ad57600080fd5b506101f0600480360360208110156101c457600080fd5b81019080803573ffffffffffffffffffffffffffffffffffffffff1690602001909291905050506119fc565b6040518080602001828103825283818151815260200191508051906020019080838360005b83811015610230578082015181840152602081019050610215565b50505050905090810190601f16801561025d5780820380516001836020036101000a031916815260200191505b509250505060405180910390f35b34801561027757600080fd5b506103516004803603604081101561028e57600080fd5b81019080803573ffffffffffffffffffffffffffffffffffffffff169060200190929190803590602001906401000000008111156102cb57600080fd5b8201836020820111156102dd57600080fd5b803590602001918460018302840111640100000000831117156102ff57600080fd5b91908080601f016020809104026020016040519081016040528093929190818152602001838380828437600081840152601f19601f820116905080830192505050505050509192919290505050611aac565b005b34801561035f57600080fd5b506103a26004803603602081101561037657600080fd5b81019080803573ffffffffffffffffffffffffffffffffffffffff169060200190929190505050611dd8565b6040518080602001828103825283818151815260200191508051906020019080838360005b838110156103e25780820151818401526020810190506103c7565b50505050905090810190601f16801561040f5780820380516001836020036101000a031916815260200191505b509250505060405180910390f35b34801561042957600080fd5b506104e36004803603602081101561044057600080fd5b810190808035906020019064010000000081111561045d57600080fd5b82018360208201111561046f57600080fd5b8035906020019184600183028401116401000000008311171561049157600080fd5b91908080601f016020809104026020016040519081016040528093929190818152602001838380828437600081840152601f19601f820116905080830192505050505050509192919290505050611e88565b005b3480156104f157600080fd5b506106626004803603606081101561050857600080fd5b81019080803573ffffffffffffffffffffffffffffffffffffffff1690602001909291908035906020019064010000000081111561054557600080fd5b82018360208201111561055757600080fd5b8035906020019184600183028401116401000000008311171561057957600080fd5b91908080601f016020809104026020016040519081016040528093929190818152602001838380828437600081840152601f19601f820116905080830192505050505050509192919290803590602001906401000000008111156105dc57600080fd5b8201836020820111156105ee57600080fd5b8035906020019184600183028401116401000000008311171561061057600080fd5b91908080601f016020809104026020016040519081016040528093929190818152602001838380828437600081840152601f19601f8201169050808301925050505050505091929192905050506120c2565b005b34801561067057600080fd5b506106bd6004803603604081101561068757600080fd5b81019080803573ffffffffffffffffffffffffffffffffffffffff16906020019092919080359060200190929190505050612484565b604051808273ffffffffffffffffffffffffffffffffffffffff1673ffffffffffffffffffffffffffffffffffffffff16815260200191505060405180910390f35b34801561070b57600080fd5b5061074e6004803603602081101561072257600080fd5b81019080803573ffffffffffffffffffffffffffffffffffffffff1690602001909291905050506124cf565b6040518080602001828103825283818151815260200191508051906020019080838360005b8381101561078e578082015181840152602081019050610773565b50505050905090810190601f1680156107bb5780820380516001836020036101000a031916815260200191505b509250505060405180910390f35b3480156107d557600080fd5b50610818600480360360208110156107ec57600080fd5b81019080803573ffffffffffffffffffffffffffffffffffffffff16906020019092919050505061257f565b6040518082815260200191505060405180910390f35b34801561083a57600080fd5b506108876004803603604081101561085157600080fd5b81019080803573ffffffffffffffffffffffffffffffffffffffff16906020019092919080359060200190929190505050612597565b6040518080602001828103825283818151815260200191508051906020019080838360005b838110156108c75780820151818401526020810190506108ac565b50505050905090810190601f1680156108f45780820380516001836020036101000a031916815260200191505b509250505060405180910390f35b34801561090e57600080fd5b506109e86004803603604081101561092557600080fd5b81019080803573ffffffffffffffffffffffffffffffffffffffff1690602001909291908035906020019064010000000081111561096257600080fd5b82018360208201111561097457600080fd5b8035906020019184600183028401116401000000008311171561099657600080fd5b91908080601f016020809104026020016040519081016040528093929190818152602001838380828437600081840152601f19601f82011690508083019250505050505050919291929050505061265d565b005b3480156109f657600080fd5b50610a3960048036036020811015610a0d57600080fd5b81019080803573ffffffffffffffffffffffffffffffffffffffff16906020019092919050505061280c565b6040518080602001828103825283818151815260200191508051906020019080838360005b83811015610a79578082015181840152602081019050610a5e565b50505050905090810190601f168015610aa65780820380516001836020036101000a031916815260200191505b509250505060405180910390f35b348015610ac057600080fd5b50610b0360048036036020811015610ad757600080fd5b81019080803573ffffffffffffffffffffffffffffffffffffffff1690602001909291905050506128bc565b6040518080602001828103825283818151815260200191508051906020019080838360005b83811015610b43578082015181840152602081019050610b28565b50505050905090810190601f168015610b705780820380516001836020036101000a031916815260200191505b509250505060405180910390f35b348015610b8a57600080fd5b50610bcd60048036036020811015610ba157600080fd5b81019080803573ffffffffffffffffffffffffffffffffffffffff16906020019092919050505061296c565b604051808215151515815260200191505060405180910390f35b348015610bf357600080fd5b50610cad60048036036020811015610c0a57600080fd5b8101908080359060200190640100000000811115610c2757600080fd5b820183602082011115610c3957600080fd5b80359060200191846001830284011164010000000083111715610c5b57600080fd5b91908080601f016020809104026020016040519081016040528093929190818152602001838380828437600081840152601f19601f82011690508083019250505050505050919291929050505061298c565b005b348015610cbb57600080fd5b50610cfe60048036036020811015610cd257600080fd5b81019080803573ffffffffffffffffffffffffffffffffffffffff169060200190929190505050612aa1565b604051808215151515815260200191505060405180910390f35b348015610d2457600080fd5b50610d6760048036036020811015610d3b57600080fd5b81019080803573ffffffffffffffffffffffffffffffffffffffff169060200190929190505050612ac1565b6040518082815260200191505060405180910390f35b611149600480360360e0811015610d9357600080fd5b8101908080359060200190640100000000811115610db057600080fd5b820183602082011115610dc257600080fd5b80359060200191846001830284011164010000000083111715610de457600080fd5b91908080601f016020809104026020016040519081016040528093929190818152602001838380828437600081840152601f19601f82011690508083019250505050505050919291929080359060200190640100000000811115610e4757600080fd5b820183602082011115610e5957600080fd5b80359060200191846001830284011164010000000083111715610e7b57600080fd5b91908080601f016020809104026020016040519081016040528093929190818152602001838380828437600081840152601f19601f82011690508083019250505050505050919291929080359060200190640100000000811115610ede57600080fd5b820183602082011115610ef057600080fd5b80359060200191846001830284011164010000000083111715610f1257600080fd5b91908080601f016020809104026020016040519081016040528093929190818152602001838380828437600081840152601f19601f82011690508083019250505050505050919291929080359060200190640100000000811115610f7557600080fd5b820183602082011115610f8757600080fd5b80359060200191846001830284011164010000000083111715610fa957600080fd5b91908080601f016020809104026020016040519081016040528093929190818152602001838380828437600081840152601f19601f8201169050808301925050505050505091929192908035906020019064010000000081111561100c57600080fd5b82018360208201111561101e57600080fd5b8035906020019184600183028401116401000000008311171561104057600080fd5b91908080601f016020809104026020016040519081016040528093929190818152602001838380828437600081840152601f19601f820116905080830192505050505050509192919290803573ffffffffffffffffffffffffffffffffffffffff169060200190929190803590602001906401000000008111156110c357600080fd5b8201836020820111156110d557600080fd5b803590602001918460018302840111640100000000831117156110f757600080fd5b91908080601f016020809104026020016040519081016040528093929190818152602001838380828437600081840152601f19601f820116905080830192505050505050509192919290505050612ad9565b005b34801561115757600080fd5b5061119a6004803603602081101561116e57600080fd5b81019080803573ffffffffffffffffffffffffffffffffffffffff169060200190929190505050613030565b604051808273ffffffffffffffffffffffffffffffffffffffff1673ffffffffffffffffffffffffffffffffffffffff16815260200191505060405180910390f35b3480156111e857600080fd5b5061122b600480360360208110156111ff57600080fd5b81019080803573ffffffffffffffffffffffffffffffffffffffff169060200190929190505050613063565b6040518080602001828103825283818151815260200191508051906020019080838360005b8381101561126b578082015181840152602081019050611250565b50505050905090810190601f1680156112985780820380516001836020036101000a031916815260200191505b509250505060405180910390f35b3480156112b257600080fd5b50611443600480360360808110156112c957600080fd5b81019080803573ffffffffffffffffffffffffffffffffffffffff169060200190929190803573ffffffffffffffffffffffffffffffffffffffff1690602001909291908035906020019064010000000081111561132657600080fd5b82018360208201111561133857600080fd5b8035906020019184600183028401116401000000008311171561135a57600080fd5b91908080601f016020809104026020016040519081016040528093929190818152602001838380828437600081840152601f19601f820116905080830192505050505050509192919290803590602001906401000000008111156113bd57600080fd5b8201836020820111156113cf57600080fd5b803590602001918460018302840111640100000000831117156113f157600080fd5b91908080601f016020809104026020016040519081016040528093929190818152602001838380828437600081840152601f19601f820116905080830192505050505050509192919290505050613113565b005b34801561145157600080fd5b506114946004803603602081101561146857600080fd5b81019080803573ffffffffffffffffffffffffffffffffffffffff16906020019092919050505061388f565b6040518082815260200191505060405180910390f35b3480156114b657600080fd5b50611503600480360360408110156114cd57600080fd5b81019080803573ffffffffffffffffffffffffffffffffffffffff169060200190929190803590602001909291905050506138a7565b6040518080602001828103825283818151815260200191508051906020019080838360005b83811015611543578082015181840152602081019050611528565b50505050905090810190601f1680156115705780820380516001836020036101000a031916815260200191505b509250505060405180910390f35b34801561158a57600080fd5b506116fb600480360360608110156115a157600080fd5b81019080803590602001906401000000008111156115be57600080fd5b8201836020820111156115d057600080fd5b803590602001918460018302840111640100000000831117156115f257600080fd5b91908080601f016020809104026020016040519081016040528093929190818152602001838380828437600081840152601f19601f8201169050808301925050505050505091929192908035906020019064010000000081111561165557600080fd5b82018360208201111561166757600080fd5b8035906020019184600183028401116401000000008311171561168957600080fd5b91908080601f016020809104026020016040519081016040528093929190818152602001838380828437600081840152601f19601f820116905080830192505050505050509192919290803573ffffffffffffffffffffffffffffffffffffffff16906020019092919050505061396d565b005b34801561170957600080fd5b5061174c6004803603602081101561172057600080fd5b81019080803573ffffffffffffffffffffffffffffffffffffffff169060200190929190505050613f62565b6040518080602001828103825283818151815260200191508051906020019080838360005b8381101561178c578082015181840152602081019050611771565b50505050905090810190601f1680156117b95780820380516001836020036101000a031916815260200191505b509250505060405180910390f35b3480156117d357600080fd5b50611816600480360360208110156117ea57600080fd5b81019080803573ffffffffffffffffffffffffffffffffffffffff169060200190929190505050614012565b6040518082815260200191505060405180910390f35b34801561183857600080fd5b506119126004803603604081101561184f57600080fd5b81019080803573ffffffffffffffffffffffffffffffffffffffff1690602001909291908035906020019064010000000081111561188c57600080fd5b82018360208201111561189e57600080fd5b803590602001918460018302840111640100000000831117156118c057600080fd5b91908080601f016020809104026020016040519081016040528093929190818152602001838380828437600081840152601f19601f82011690508083019250505050505050919291929050505061402a565b005b34801561192057600080fd5b506119fa6004803603604081101561193757600080fd5b81019080803573ffffffffffffffffffffffffffffffffffffffff1690602001909291908035906020019064010000000081111561197457600080fd5b82018360208201111561198657600080fd5b803590602001918460018302840111640100000000831117156119a857600080fd5b91908080601f016020809104026020016040519081016040528093929190818152602001838380828437600081840152601f19601f820116905080830192505050505050509192919290505050614356565b005b60036020528060005260406000206000915090508054600181600116156101000203166002900480601f016020809104026020016040519081016040528092919081815260200182805460018160011615610100020316600290048015611aa45780601f10611a7957610100808354040283529160200191611aa4565b820191906000526020600020905b815481529060010190602001808311611a8757829003601f168201915b505050505081565b813373ffffffffffffffffffffffffffffffffffffffff16600460008373ffffffffffffffffffffffffffffffffffffffff1673ffffffffffffffffffffffffffffffffffffffff16815260200190815260200160002060009054906101000a900473ffffffffffffffffffffffffffffffffffffffff1673ffffffffffffffffffffffffffffffffffffffff1614611b4457600080fd5b6000600c60008573ffffffffffffffffffffffffffffffffffffffff1673ffffffffffffffffffffffffffffffffffffffff16815260200190815260200160002060006101000a81548160ff0219169083151502179055506060611be6611baa4261462a565b6040518060400160405280600281526020017f3d3e00000000000000000000000000000000000000000000000000000000000081525085614757565b9050600f60008573ffffffffffffffffffffffffffffffffffffffff1673ffffffffffffffffffffffffffffffffffffffff168152602001908152602001600020819080600181540180825580915050906001820390600052602060002001600090919290919091509080519060200190611c62929190614a05565b5050611cb76001601060008773ffffffffffffffffffffffffffffffffffffffff1673ffffffffffffffffffffffffffffffffffffffff1681526020019081526020016000205461487390919063ffffffff16565b601060008673ffffffffffffffffffffffffffffffffffffffff1673ffffffffffffffffffffffffffffffffffffffff168152602001908152602001600020819055507f8a3140dc36162196505388d912ddf6e8a4fd5e20e94a03bf00a3a42f82c8a026844285604051808473ffffffffffffffffffffffffffffffffffffffff1673ffffffffffffffffffffffffffffffffffffffff16815260200183815260200180602001828103825283818151815260200191508051906020019080838360005b83811015611d96578082015181840152602081019050611d7b565b50505050905090810190601f168015611dc35780820380516001836020036101000a031916815260200191505b5094505050505060405180910390a150505050565b60026020528060005260406000206000915090508054600181600116156101000203166002900480601f016020809104026020016040519081016040528092919081815260200182805460018160011615610100020316600290048015611e805780601f10611e5557610100808354040283529160200191611e80565b820191906000526020600020905b815481529060010190602001808311611e6357829003601f168201915b505050505081565b7fe30058fa90db07567478ca212736983380eed313b1b94f8766daf1a1339fc3b5334283604051808473ffffffffffffffffffffffffffffffffffffffff1673ffffffffffffffffffffffffffffffffffffffff16815260200183815260200180602001828103825283818151815260200191508051906020019080838360005b83811015611f24578082015181840152602081019050611f09565b50505050905090810190601f168015611f515780820380516001836020036101000a031916815260200191505b5094505050505060405180910390a16060611faa611f6e4261462a565b6040518060400160405280600281526020017f3d3e00000000000000000000000000000000000000000000000000000000000081525084614757565b9050600f60003373ffffffffffffffffffffffffffffffffffffffff1673ffffffffffffffffffffffffffffffffffffffff168152602001908152602001600020819080600181540180825580915050906001820390600052602060002001600090919290919091509080519060200190612026929190614a05565b505061207b6001601060003373ffffffffffffffffffffffffffffffffffffffff1673ffffffffffffffffffffffffffffffffffffffff1681526020019081526020016000205461487390919063ffffffff16565b601060003373ffffffffffffffffffffffffffffffffffffffff1673ffffffffffffffffffffffffffffffffffffffff168152602001908152602001600020819055505050565b823373ffffffffffffffffffffffffffffffffffffffff16600460008373ffffffffffffffffffffffffffffffffffffffff1673ffffffffffffffffffffffffffffffffffffffff16815260200190815260200160002060009054906101000a900473ffffffffffffffffffffffffffffffffffffffff1673ffffffffffffffffffffffffffffffffffffffff161461215a57600080fd5b82600660008673ffffffffffffffffffffffffffffffffffffffff1673ffffffffffffffffffffffffffffffffffffffff16815260200190815260200160002090805190602001906121ad929190614a05565b5081600560008673ffffffffffffffffffffffffffffffffffffffff1673ffffffffffffffffffffffffffffffffffffffff1681526020019081526020016000209080519060200190612201929190614a05565b507fe4e6fcf954471a26d88516fc200202758e0e87a23c65e3c495c80f4a48cee076334285604051808473ffffffffffffffffffffffffffffffffffffffff1673ffffffffffffffffffffffffffffffffffffffff16815260200183815260200180602001828103825283818151815260200191508051906020019080838360005b8381101561229e578082015181840152602081019050612283565b50505050905090810190601f1680156122cb5780820380516001836020036101000a031916815260200191505b5094505050505060405180910390a1606061231c846040518060400160405280601981526020017f20697320746865206e6577206f776e65722e206d61696c203a0000000000000081525085614757565b9050606061236861232c4261462a565b6040518060400160405280600281526020017f3d3e00000000000000000000000000000000000000000000000000000000000081525084614757565b9050600f60008773ffffffffffffffffffffffffffffffffffffffff1673ffffffffffffffffffffffffffffffffffffffff1681526020019081526020016000208190806001815401808255809150509060018203906000526020600020016000909192909190915090805190602001906123e4929190614a05565b50506124396001601060008973ffffffffffffffffffffffffffffffffffffffff1673ffffffffffffffffffffffffffffffffffffffff1681526020019081526020016000205461487390919063ffffffff16565b601060008873ffffffffffffffffffffffffffffffffffffffff1673ffffffffffffffffffffffffffffffffffffffff16815260200190815260200160002081905550505050505050565b6009602052816000526040600020818154811061249d57fe5b906000526020600020016000915091509054906101000a900473ffffffffffffffffffffffffffffffffffffffff1681565b60066020528060005260406000206000915090508054600181600116156101000203166002900480601f0160208091040260200160405190810160405280929190818152602001828054600181600116156101000203166002900480156125775780601f1061254c57610100808354040283529160200191612577565b820191906000526020600020905b81548152906001019060200180831161255a57829003601f168201915b505050505081565b600a6020528060005260406000206000915090505481565b600d60205281600052604060002081815481106125b057fe5b90600052602060002001600091509150508054600181600116156101000203166002900480601f0160208091040260200160405190810160405280929190818152602001828054600181600116156101000203166002900480156126555780601f1061262a57610100808354040283529160200191612655565b820191906000526020600020905b81548152906001019060200180831161263857829003601f168201915b505050505081565b813373ffffffffffffffffffffffffffffffffffffffff16600460008373ffffffffffffffffffffffffffffffffffffffff1673ffffffffffffffffffffffffffffffffffffffff16815260200190815260200160002060009054906101000a900473ffffffffffffffffffffffffffffffffffffffff1673ffffffffffffffffffffffffffffffffffffffff16146126f557600080fd5b600d60008473ffffffffffffffffffffffffffffffffffffffff1673ffffffffffffffffffffffffffffffffffffffff16815260200190815260200160002082908060018154018082558091505090600182039060005260206000200160009091929091909150908051906020019061276f929190614a05565b50506127c46001600e60008673ffffffffffffffffffffffffffffffffffffffff1673ffffffffffffffffffffffffffffffffffffffff1681526020019081526020016000205461487390919063ffffffff16565b600e60008573ffffffffffffffffffffffffffffffffffffffff1673ffffffffffffffffffffffffffffffffffffffff16815260200190815260200160002081905550505050565b60006020528060005260406000206000915090508054600181600116156101000203166002900480601f0160208091040260200160405190810160405280929190818152602001828054600181600116156101000203166002900480156128b45780601f10612889576101008083540402835291602001916128b4565b820191906000526020600020905b81548152906001019060200180831161289757829003601f168201915b505050505081565b60016020528060005260406000206000915090508054600181600116156101000203166002900480601f0160208091040260200160405190810160405280929190818152602001828054600181600116156101000203166002900480156129645780601f1061293957610100808354040283529160200191612964565b820191906000526020600020905b81548152906001019060200180831161294757829003601f168201915b505050505081565b600b6020528060005260406000206000915054906101000a900460ff1681565b600d60003373ffffffffffffffffffffffffffffffffffffffff1673ffffffffffffffffffffffffffffffffffffffff168152602001908152602001600020819080600181540180825580915050906001820390600052602060002001600090919290919091509080519060200190612a06929190614a05565b5050612a5b6001600e60003373ffffffffffffffffffffffffffffffffffffffff1673ffffffffffffffffffffffffffffffffffffffff1681526020019081526020016000205461487390919063ffffffff16565b600e60003373ffffffffffffffffffffffffffffffffffffffff1673ffffffffffffffffffffffffffffffffffffffff1681526020019081526020016000208190555050565b600c6020528060005260406000206000915054906101000a900460ff1681565b60076020528060005260406000206000915090505481565b60001515600b60008473ffffffffffffffffffffffffffffffffffffffff1673ffffffffffffffffffffffffffffffffffffffff16815260200190815260200160002060009054906101000a900460ff16151514612b3657600080fd5b662386f26fc10000341015612b4a57600080fd5b6001600b60008473ffffffffffffffffffffffffffffffffffffffff1673ffffffffffffffffffffffffffffffffffffffff16815260200190815260200160002060006101000a81548160ff021916908315150217905550866000808473ffffffffffffffffffffffffffffffffffffffff1673ffffffffffffffffffffffffffffffffffffffff1681526020019081526020016000209080519060200190612bf4929190614a05565b5085600160008473ffffffffffffffffffffffffffffffffffffffff1673ffffffffffffffffffffffffffffffffffffffff1681526020019081526020016000209080519060200190612c48929190614a05565b5084600260008473ffffffffffffffffffffffffffffffffffffffff1673ffffffffffffffffffffffffffffffffffffffff1681526020019081526020016000209080519060200190612c9c929190614a05565b5083600360008473ffffffffffffffffffffffffffffffffffffffff1673ffffffffffffffffffffffffffffffffffffffff1681526020019081526020016000209080519060200190612cf0929190614a05565b50600d60008373ffffffffffffffffffffffffffffffffffffffff1673ffffffffffffffffffffffffffffffffffffffff168152602001908152602001600020819080600181540180825580915050906001820390600052602060002001600090919290919091509080519060200190612d6b929190614a05565b5050612dc06001600e60008573ffffffffffffffffffffffffffffffffffffffff1673ffffffffffffffffffffffffffffffffffffffff1681526020019081526020016000205461487390919063ffffffff16565b600e60008473ffffffffffffffffffffffffffffffffffffffff1673ffffffffffffffffffffffffffffffffffffffff1681526020019081526020016000208190555042600760008473ffffffffffffffffffffffffffffffffffffffff1673ffffffffffffffffffffffffffffffffffffffff1681526020019081526020016000208190555082600860008473ffffffffffffffffffffffffffffffffffffffff1673ffffffffffffffffffffffffffffffffffffffff1681526020019081526020016000209080519060200190612e9a929190614a05565b508173ffffffffffffffffffffffffffffffffffffffff166108fc349081150290604051600060405180830381858888f19350505050158015612ee1573d6000803e3d6000fd5b507ffbf248eaf4e5037d175c8bcac689531cb0ec0a392d72f80924264284e48ea4ef82428686604051808573ffffffffffffffffffffffffffffffffffffffff1673ffffffffffffffffffffffffffffffffffffffff1681526020018481526020018060200180602001838103835285818151815260200191508051906020019080838360005b83811015612f83578082015181840152602081019050612f68565b50505050905090810190601f168015612fb05780820380516001836020036101000a031916815260200191505b50838103825284818151815260200191508051906020019080838360005b83811015612fe9578082015181840152602081019050612fce565b50505050905090810190601f1680156130165780820380516001836020036101000a031916815260200191505b50965050505050505060405180910390a150505050505050565b60046020528060005260406000206000915054906101000a900473ffffffffffffffffffffffffffffffffffffffff1681565b60086020528060005260406000206000915090508054600181600116156101000203166002900480601f01602080910402602001604051908101604052809291908181526020018280546001816001161561010002031660029004801561310b5780601f106130e05761010080835404028352916020019161310b565b820191906000526020600020905b8154815290600101906020018083116130ee57829003601f168201915b505050505081565b833373ffffffffffffffffffffffffffffffffffffffff16600460008373ffffffffffffffffffffffffffffffffffffffff1673ffffffffffffffffffffffffffffffffffffffff16815260200190815260200160002060009054906101000a900473ffffffffffffffffffffffffffffffffffffffff1673ffffffffffffffffffffffffffffffffffffffff16146131ab57600080fd5b6131fe6001600a60003373ffffffffffffffffffffffffffffffffffffffff1673ffffffffffffffffffffffffffffffffffffffff168152602001908152602001600020546148fb90919063ffffffff16565b600a60003373ffffffffffffffffffffffffffffffffffffffff1673ffffffffffffffffffffffffffffffffffffffff168152602001908152602001600020819055506132946001600a60008773ffffffffffffffffffffffffffffffffffffffff1673ffffffffffffffffffffffffffffffffffffffff1681526020019081526020016000205461487390919063ffffffff16565b600a60008673ffffffffffffffffffffffffffffffffffffffff1673ffffffffffffffffffffffffffffffffffffffff1681526020019081526020016000208190555083600460008773ffffffffffffffffffffffffffffffffffffffff1673ffffffffffffffffffffffffffffffffffffffff16815260200190815260200160002060006101000a81548173ffffffffffffffffffffffffffffffffffffffff021916908373ffffffffffffffffffffffffffffffffffffffff160217905550600960008573ffffffffffffffffffffffffffffffffffffffff1673ffffffffffffffffffffffffffffffffffffffff1681526020019081526020016000208590806001815401808255809150509060018203906000526020600020016000909192909190916101000a81548173ffffffffffffffffffffffffffffffffffffffff021916908373ffffffffffffffffffffffffffffffffffffffff160217905550506000806000905060008090505b600960003373ffffffffffffffffffffffffffffffffffffffff1673ffffffffffffffffffffffffffffffffffffffff16815260200190815260200160002080549050811015613510578773ffffffffffffffffffffffffffffffffffffffff16600960003373ffffffffffffffffffffffffffffffffffffffff1673ffffffffffffffffffffffffffffffffffffffff16815260200190815260200160002082815481106134b057fe5b9060005260206000200160009054906101000a900473ffffffffffffffffffffffffffffffffffffffff1673ffffffffffffffffffffffffffffffffffffffff1614156135035760019150809250613510565b8080600101915050613405565b5060011515811515141561359657600960003373ffffffffffffffffffffffffffffffffffffffff1673ffffffffffffffffffffffffffffffffffffffff168152602001908152602001600020828154811061356857fe5b9060005260206000200160006101000a81549073ffffffffffffffffffffffffffffffffffffffff02191690555b84600660008973ffffffffffffffffffffffffffffffffffffffff1673ffffffffffffffffffffffffffffffffffffffff16815260200190815260200160002090805190602001906135e9929190614a05565b5083600560008973ffffffffffffffffffffffffffffffffffffffff1673ffffffffffffffffffffffffffffffffffffffff168152602001908152602001600020908051906020019061363d929190614a05565b506060613680866040518060400160405280601981526020017f20697320746865206e6577206f776e65722e206d61696c203a0000000000000081525087614757565b905060606136cc6136904261462a565b6040518060400160405280600281526020017f3d3e00000000000000000000000000000000000000000000000000000000000081525084614757565b9050600f60008a73ffffffffffffffffffffffffffffffffffffffff1673ffffffffffffffffffffffffffffffffffffffff168152602001908152602001600020819080600181540180825580915050906001820390600052602060002001600090919290919091509080519060200190613748929190614a05565b505061379d6001601060008c73ffffffffffffffffffffffffffffffffffffffff1673ffffffffffffffffffffffffffffffffffffffff1681526020019081526020016000205461487390919063ffffffff16565b601060008b73ffffffffffffffffffffffffffffffffffffffff1673ffffffffffffffffffffffffffffffffffffffff168152602001908152602001600020819055507fe4e6fcf954471a26d88516fc200202758e0e87a23c65e3c495c80f4a48cee0768942604051808373ffffffffffffffffffffffffffffffffffffffff1673ffffffffffffffffffffffffffffffffffffffff16815260200182815260200180602001828103825260068152602001807f4e6f4e616d650000000000000000000000000000000000000000000000000000815250602001935050505060405180910390a1505050505050505050565b60106020528060005260406000206000915090505481565b600f60205281600052604060002081815481106138c057fe5b90600052602060002001600091509150508054600181600116156101000203166002900480601f0160208091040260200160405190810160405280929190818152602001828054600181600116156101000203166002900480156139655780601f1061393a57610100808354040283529160200191613965565b820191906000526020600020905b81548152906001019060200180831161394857829003601f168201915b505050505081565b60011515600b60003373ffffffffffffffffffffffffffffffffffffffff1673ffffffffffffffffffffffffffffffffffffffff16815260200190815260200160002060009054906101000a900460ff161515146139ca57600080fd5b600073ffffffffffffffffffffffffffffffffffffffff168173ffffffffffffffffffffffffffffffffffffffff1614613bba5780600460003373ffffffffffffffffffffffffffffffffffffffff1673ffffffffffffffffffffffffffffffffffffffff16815260200190815260200160002060006101000a81548173ffffffffffffffffffffffffffffffffffffffff021916908373ffffffffffffffffffffffffffffffffffffffff160217905550600960008273ffffffffffffffffffffffffffffffffffffffff1673ffffffffffffffffffffffffffffffffffffffff1681526020019081526020016000203390806001815401808255809150509060018203906000526020600020016000909192909190916101000a81548173ffffffffffffffffffffffffffffffffffffffff021916908373ffffffffffffffffffffffffffffffffffffffff16021790555050613b726001600a60008473ffffffffffffffffffffffffffffffffffffffff1673ffffffffffffffffffffffffffffffffffffffff1681526020019081526020016000205461487390919063ffffffff16565b600a60008373ffffffffffffffffffffffffffffffffffffffff1673ffffffffffffffffffffffffffffffffffffffff16815260200190815260200160002081905550613c39565b33600460003373ffffffffffffffffffffffffffffffffffffffff1673ffffffffffffffffffffffffffffffffffffffff16815260200190815260200160002060006101000a81548173ffffffffffffffffffffffffffffffffffffffff021916908373ffffffffffffffffffffffffffffffffffffffff1602179055505b6060613c7b836040518060400160405280601981526020017f20697320746865206e6577206f776e65722e206d61696c203a0000000000000081525086614757565b90506060613cc7613c8b4261462a565b6040518060400160405280600281526020017f3d3e00000000000000000000000000000000000000000000000000000000000081525084614757565b9050600f60003373ffffffffffffffffffffffffffffffffffffffff1673ffffffffffffffffffffffffffffffffffffffff168152602001908152602001600020819080600181540180825580915050906001820390600052602060002001600090919290919091509080519060200190613d43929190614a05565b5050613d986001601060003373ffffffffffffffffffffffffffffffffffffffff1673ffffffffffffffffffffffffffffffffffffffff1681526020019081526020016000205461487390919063ffffffff16565b601060003373ffffffffffffffffffffffffffffffffffffffff1673ffffffffffffffffffffffffffffffffffffffff1681526020019081526020016000208190555084600560003373ffffffffffffffffffffffffffffffffffffffff1673ffffffffffffffffffffffffffffffffffffffff1681526020019081526020016000209080519060200190613e2e929190614a05565b5083600660003373ffffffffffffffffffffffffffffffffffffffff1673ffffffffffffffffffffffffffffffffffffffff1681526020019081526020016000209080519060200190613e82929190614a05565b507fe4e6fcf954471a26d88516fc200202758e0e87a23c65e3c495c80f4a48cee076334286604051808473ffffffffffffffffffffffffffffffffffffffff1673ffffffffffffffffffffffffffffffffffffffff16815260200183815260200180602001828103825283818151815260200191508051906020019080838360005b83811015613f1f578082015181840152602081019050613f04565b50505050905090810190601f168015613f4c5780820380516001836020036101000a031916815260200191505b5094505050505060405180910390a15050505050565b60056020528060005260406000206000915090508054600181600116156101000203166002900480601f01602080910402602001604051908101604052809291908181526020018280546001816001161561010002031660029004801561400a5780601f10613fdf5761010080835404028352916020019161400a565b820191906000526020600020905b815481529060010190602001808311613fed57829003601f168201915b505050505081565b600e6020528060005260406000206000915090505481565b813373ffffffffffffffffffffffffffffffffffffffff16600460008373ffffffffffffffffffffffffffffffffffffffff1673ffffffffffffffffffffffffffffffffffffffff16815260200190815260200160002060009054906101000a900473ffffffffffffffffffffffffffffffffffffffff1673ffffffffffffffffffffffffffffffffffffffff16146140c257600080fd5b6001600c60008573ffffffffffffffffffffffffffffffffffffffff1673ffffffffffffffffffffffffffffffffffffffff16815260200190815260200160002060006101000a81548160ff02191690831515021790555060606141646141284261462a565b6040518060400160405280600281526020017f3d3e00000000000000000000000000000000000000000000000000000000000081525085614757565b9050600f60008573ffffffffffffffffffffffffffffffffffffffff1673ffffffffffffffffffffffffffffffffffffffff1681526020019081526020016000208190806001815401808255809150509060018203906000526020600020016000909192909190915090805190602001906141e0929190614a05565b50506142356001601060008773ffffffffffffffffffffffffffffffffffffffff1673ffffffffffffffffffffffffffffffffffffffff1681526020019081526020016000205461487390919063ffffffff16565b601060008673ffffffffffffffffffffffffffffffffffffffff1673ffffffffffffffffffffffffffffffffffffffff168152602001908152602001600020819055507fcac30c1a6f793b347b6d78f006b0a53a2508ad6784eb8523f53c6e526c3d4127844285604051808473ffffffffffffffffffffffffffffffffffffffff1673ffffffffffffffffffffffffffffffffffffffff16815260200183815260200180602001828103825283818151815260200191508051906020019080838360005b838110156143145780820151818401526020810190506142f9565b50505050905090810190601f1680156143415780820380516001836020036101000a031916815260200191505b5094505050505060405180910390a150505050565b813373ffffffffffffffffffffffffffffffffffffffff16600460008373ffffffffffffffffffffffffffffffffffffffff1673ffffffffffffffffffffffffffffffffffffffff16815260200190815260200160002060009054906101000a900473ffffffffffffffffffffffffffffffffffffffff1673ffffffffffffffffffffffffffffffffffffffff16146143ee57600080fd5b7fe30058fa90db07567478ca212736983380eed313b1b94f8766daf1a1339fc3b5834284604051808473ffffffffffffffffffffffffffffffffffffffff1673ffffffffffffffffffffffffffffffffffffffff16815260200183815260200180602001828103825283818151815260200191508051906020019080838360005b8381101561448a57808201518184015260208101905061446f565b50505050905090810190601f1680156144b75780820380516001836020036101000a031916815260200191505b5094505050505060405180910390a160606145106144d44261462a565b6040518060400160405280600281526020017f3d3e00000000000000000000000000000000000000000000000000000000000081525085614757565b9050600f60008573ffffffffffffffffffffffffffffffffffffffff1673ffffffffffffffffffffffffffffffffffffffff16815260200190815260200160002081908060018154018082558091505090600182039060005260206000200160009091929091909150908051906020019061458c929190614a05565b50506145e16001601060008773ffffffffffffffffffffffffffffffffffffffff1673ffffffffffffffffffffffffffffffffffffffff1681526020019081526020016000205461487390919063ffffffff16565b601060008673ffffffffffffffffffffffffffffffffffffffff1673ffffffffffffffffffffffffffffffffffffffff1681526020019081526020016000208190555050505050565b60606000821415614672576040518060400160405280600181526020017f30000000000000000000000000000000000000000000000000000000000000008152509050614752565b600082905060005b6000821461469c578080600101915050600a828161469457fe5b04915061467a565b6060816040519080825280601f01601f1916602001820160405280156146d15781602001600182028038833980820191505090505b50905060006001830390505b6000861461474a57600a86816146ef57fe5b0660300160f81b8282806001900393508151811061470957fe5b60200101907effffffffffffffffffffffffffffffffffffffffffffffffffffffffffffff1916908160001a905350600a868161474257fe5b0495506146dd565b819450505050505b919050565b60608383836040516020018084805190602001908083835b60208310614792578051825260208201915060208101905060208303925061476f565b6001836020036101000a03801982511681845116808217855250505050505090500183805190602001908083835b602083106147e357805182526020820191506020810190506020830392506147c0565b6001836020036101000a03801982511681845116808217855250505050505090500182805190602001908083835b602083106148345780518252602082019150602081019050602083039250614811565b6001836020036101000a038019825116818451168082178552505050505050905001935050505060405160208183030381529060405290509392505050565b6000808284019050838110156148f1576040517f08c379a000000000000000000000000000000000000000000000000000000000815260040180806020018281038252601b8152602001807f536166654d6174683a206164646974696f6e206f766572666c6f77000000000081525060200191505060405180910390fd5b8091505092915050565b600061493d83836040518060400160405280601e81526020017f536166654d6174683a207375627472616374696f6e206f766572666c6f770000815250614945565b905092915050565b60008383111582906149f2576040517f08c379a00000000000000000000000000000000000000000000000000000000081526004018080602001828103825283818151815260200191508051906020019080838360005b838110156149b757808201518184015260208101905061499c565b50505050905090810190601f1680156149e45780820380516001836020036101000a031916815260200191505b509250505060405180910390fd5b5060008385039050809150509392505050565b828054600181600116156101000203166002900490600052602060002090601f016020900481019282601f10614a4657805160ff1916838001178555614a74565b82800160010185558215614a74579182015b82811115614a73578251825591602001919060010190614a58565b5b509050614a819190614a85565b5090565b614aa791905b80821115614aa3576000816000905550600101614a8b565b5090565b9056fea265627a7a72315820c6fa00cf5513ecd3c75d951d8f4b3a3f014bd4fcf0e58644b4d08b50ff69110964736f6c634300050c0032",
  "source": "pragma solidity ^0.5.0;\n\nimport \"./safemath.sol\";\n\n// Deezmine est une Dapp permettant de revendiquer l'appartenance d'un intrument de musique sur la blockchain Ethereum\n// Il est possible d'ajouter des evenements  la vie d'un instrument\n\n// Toute la Dapp est construite autour d'une \"philosophie\":\n// - tre accessible  une personne ne connaissant rien au principe de blockchain\n// L'ide tant que l'utilisateur final n'ai pas besoin d'acheter de cryptomonnaie afin d'utiliser le service\n// C'est dans ce cadre que j'ai choisis de ne pas utiliser le standard ERC721 qui ncessite d'avoir un wallet de cryptomonnaie\n\ncontract Deezmine {\n    using SafeMath for uint256;\n\n    event newInstrument(\n        address _id,\n        uint256 _date,\n        string _name,\n        string _serialNumber\n    );\n    event newOwner(address _id, uint256 date, string _ownerNickName);\n    event hasBeenStolenOrLost(address _id, uint256 date, string _message);\n    event hasBeenRecover(address _id, uint256 date, string _message);\n    event warningAlarm(address _id, uint256 date, string _location);\n    event historyEvent(address _id, uint256 _date, string _details);\n\n    // Caractristique d'un instrument. Celui-ci est reprsent par une adresse\n\n    mapping(address => string) public brand;\n    mapping(address => string) public model;\n    mapping(address => string) public instrumentType;\n    mapping(address => string) public name;\n    mapping(address => address) public owner;\n    mapping(address => string) public ownerMail;\n    mapping(address => string) public ownerNickName;\n    mapping(address => uint256) public birthDateOfInstrument;\n    mapping(address => string) public serialNumber;\n\n    // Un propritaire pourra avoir plusieurs instruments.\n    mapping(address => address[]) public ownerOf;\n    mapping(address => uint256) public numberOfInstrumentOwnerGot;\n\n    mapping(address => bool) public exist;\n    mapping(address => bool) public isStolenOrLost;\n\n    mapping(address => string[]) public pictures;\n    mapping(address => uint256) public numberOfPictures;\n\n    //-------------------------------------------------------------------------//\n    //--------------Enregistrement et transfer de l'instrument-----------------//\n    //-------------------------------------------------------------------------//\n\n    // Enregistrement de l'instrument sur la blockchain par le fabricant.\n    // Une app JS crerra un jeu de cl prive et adresse, l'adresse sera inscrite sur le tag NFC de l'instrument et la cl prive sera inscrite sur un chip NFC format carte de crdit et crypt par mot de passe .\n    function checkInInstrument(\n        string memory _brand,\n        string memory _model,\n        string memory _instrumentType,\n        string memory _name,\n        string memory _serialNumber,\n        address payable _id,\n        string memory _picture\n    ) public payable {\n        require(exist[_id] == false);\n        require(msg.value >= 10 finney);\n        exist[_id] = true;\n\n        brand[_id] = _brand;\n        model[_id] = _model;\n        instrumentType[_id] = _instrumentType;\n        name[_id] = _name; // name est une concatnation de marque-model-type( ex: Fender-Stratocaster-Guitar).\n\n        pictures[_id].push(_picture);\n        numberOfPictures[_id] = numberOfPictures[_id].add(1);\n\n        birthDateOfInstrument[_id] = now;\n        serialNumber[_id] = _serialNumber;\n        // Le fabricant transfert 10 Finney sur l'adresse de l'instrument pour que le futur propritaire puisse inscrire ses infos sans avoir besoin d'acheter d'ether.\n        (_id).transfer(msg.value);\n\n        emit newInstrument(_id, now, _name, _serialNumber);\n    }\n\n    // La prise de possession de l'instrument sera faite via l'appli mobile.\n    // Le \"client\" aura besoin de la cl prive du ship NFC format carte de crdit.\n    // Le proprio pourra s'il le souhaite inscrire un email.\n    // Il est possible d'utiliser cette fonction pour transfrer l'instrument  un new Owner.\n    function takeOwnership(\n        string memory _ownerMail,\n        string memory _ownerNickName,\n        address _ownerAdrress\n    ) public {\n        require(exist[msg.sender] == true);\n        // Il sera possible, si le nouveau proprio possde un wallet, d'inscrire l'adresse de son wallet comme propritaire de l'instru.\n        // option facultative\n        if (_ownerAdrress != address(0x0)) {\n            owner[msg.sender] = _ownerAdrress;\n            ownerOf[_ownerAdrress].push(msg.sender); // on transfer l'instrument dans le \"wallet\" d'instrument du nouveau proprio\n            numberOfInstrumentOwnerGot[_ownerAdrress] = numberOfInstrumentOwnerGot[_ownerAdrress]\n                .add(1);\n\n        } else {\n            owner[msg.sender] = msg.sender; // Si pas de wallet, l'adresse proprio est celle de l'instrument\n        }\n\n        string memory details = append(\n            _ownerNickName,\n            \" is the new owner. mail :\",\n            _ownerMail\n        );\n\n        string memory story = append(uint2str(now), \"=>\", details);\n        storieOfInstrument[msg.sender].push(story);\n        numberOfStories[msg.sender] = numberOfStories[msg.sender].add(1);\n\n        ownerMail[msg.sender] = _ownerMail;\n        ownerNickName[msg.sender] = _ownerNickName;\n        emit newOwner(msg.sender, now, _ownerNickName);\n    }\n\n    modifier isOwner(address _id) {\n        require(owner[_id] == msg.sender);\n        _;\n    }\n\n    // Mthode de transfer de particulier  particulier en cas de perte du ship NFC format carte de crdit.\n    // Le owner doit connaitre l'address du futur owner, et avoir dj inscrit son adresse comme propritaire de l'instru.\n    // le new owner doit crer un wallet auparavent.\n    function transfer(\n        address _id,\n        address _futurOwner,\n        string memory _ownerNickname,\n        string memory _ownerMail\n    ) public isOwner(_id) {\n        numberOfInstrumentOwnerGot[msg.sender] = numberOfInstrumentOwnerGot[msg\n            .sender]\n            .sub(1);\n        numberOfInstrumentOwnerGot[_futurOwner] = numberOfInstrumentOwnerGot[_futurOwner]\n            .add(1);\n        owner[_id] = _futurOwner;\n        ownerOf[_futurOwner].push(_id);\n\n        uint256 idToDelete;\n        bool found = false;\n\n        for (uint256 i = 0; i < ownerOf[msg.sender].length; i++) {\n            if (ownerOf[msg.sender][i] == _id) {\n                found = true;\n                idToDelete = i;\n                break;\n            }\n        }\n        if (found == true) {\n            delete (ownerOf[msg.sender][idToDelete]);\n        }\n\n        ownerNickName[_id] = _ownerNickname;\n        ownerMail[_id] = _ownerMail;\n        string memory details = append(\n            _ownerNickname,\n            \" is the new owner. mail :\",\n            _ownerMail\n        );\n\n        string memory story = append(uint2str(now), \"=>\", details);\n        storieOfInstrument[_id].push(story);\n        numberOfStories[_id] = numberOfStories[_id].add(1);\n        emit newOwner(_id, now, \"NoName\");\n    }\n\n    // fonction equivalente  takeOwnership dans le cas ou la l'instrument a t affili  un wallet.\n    function changeOwnerName(\n        address _id,\n        string memory _newOwnerNickName,\n        string memory _newOwnerMail\n    ) public isOwner(_id) {\n        ownerNickName[_id] = _newOwnerNickName;\n        ownerMail[_id] = _newOwnerMail;\n        emit newOwner(msg.sender, now, _newOwnerNickName);\n\n        string memory details = append(\n            _newOwnerNickName,\n            \" is the new owner. mail :\",\n            _newOwnerMail\n        );\n        string memory concatNowDetails = append(uint2str(now), \"=>\", details);\n        storieOfInstrument[_id].push(concatNowDetails);\n        numberOfStories[_id] = numberOfStories[_id].add(1);\n    }\n\n    function addPictureWithWallet(address _id, string memory _ipfsHash)\n        public\n        isOwner(_id)\n    {\n        pictures[_id].push(_ipfsHash);\n        numberOfPictures[_id] = numberOfPictures[_id].add(1);\n    }\n\n    function addPicture(string memory _ipfsHash) public {\n        pictures[msg.sender].push(_ipfsHash);\n        numberOfPictures[msg.sender] = numberOfPictures[msg.sender].add(1);\n    }\n\n    //-------------------------------------------------------------------------//\n    //---------------------Dclaration de vol ou de perte----------------------//\n    //-------------------------------------------------------------------------//\n\n    // Un owner peut dclarer son intrument vol ou perdu.\n    function declareStolenOrLost(address _id, string memory _message)\n        public\n        isOwner(_id)\n    {\n        isStolenOrLost[_id] = true;\n        string memory concatNowDetails = append(uint2str(now), \"=>\", _message);\n        storieOfInstrument[_id].push(concatNowDetails);\n        numberOfStories[_id] = numberOfStories[_id].add(1);\n        emit hasBeenStolenOrLost(_id, now, _message);\n    }\n\n    // Le owner est le seul  pouvoir pretendre avoir retrouv son instrument.\n    function declareRecover(address _id, string memory _message)\n        public\n        isOwner(_id)\n    {\n        isStolenOrLost[_id] = false;\n        string memory concatNowDetails = append(uint2str(now), \"=>\", _message);\n        storieOfInstrument[_id].push(concatNowDetails);\n        numberOfStories[_id] = numberOfStories[_id].add(1);\n        emit hasBeenRecover(_id, now, _message);\n    }\n\n    //-------------------------------------------------------------------------//\n    //----------------------Historique de l'instrument-------------------------//\n    //-------------------------------------------------------------------------//\n\n    mapping(address => string[]) public storieOfInstrument;\n    mapping(address => uint256) public numberOfStories;\n\n    // fonction permettant de concatner 3 string\n    function append(string memory a, string memory b, string memory c)\n        internal\n        pure\n        returns (string memory)\n    {\n        return string(abi.encodePacked(a, b, c));\n    }\n\n    // fonction permettant de transformer uint en string\n    function uint2str(uint256 _i)\n        internal\n        pure\n        returns (string memory _uintAsString)\n    {\n        if (_i == 0) {\n            return \"0\";\n        }\n        uint256 j = _i;\n        uint256 len;\n        while (j != 0) {\n            len++;\n            j /= 10;\n        }\n        bytes memory bstr = new bytes(len);\n        uint256 k = len - 1;\n        while (_i != 0) {\n            bstr[k--] = bytes1(uint8(48 + (_i % 10)));\n            _i /= 10;\n        }\n        return string(bstr);\n    }\n\n    // 2 possibilits: avec l'adresse de l'owner:\n    // Si l'instrument a t affili  un wallet\n    function createStory(address _id, string memory _details)\n        public\n        isOwner(_id)\n    {\n        emit historyEvent(_id, now, _details);\n\n        string memory concatNowDetails = append(uint2str(now), \"=>\", _details);\n        storieOfInstrument[_id].push(concatNowDetails);\n        numberOfStories[_id] = numberOfStories[_id].add(1);\n    }\n\n    //avec la cl prive de l'instru.\n    function createStoryWithKey(string memory _details) public {\n        emit historyEvent(msg.sender, now, _details);\n        string memory concatNowDetails = append(uint2str(now), \"=>\", _details);\n        storieOfInstrument[msg.sender].push(concatNowDetails);\n        numberOfStories[msg.sender] = numberOfStories[msg.sender].add(1);\n    }\n\n}\n",
  "sourcePath": "/Users/berthelotsylvain/dossier-dev/Alyra/Projet Final/contracttest/contracts/Deezmine.sol",
  "compiler": {
    "name": "solc",
    "version": "0.5.12+commit.7709ece9.Emscripten.clang"
  },
  "schemaVersion": "3.0.20",
  "updatedAt": "2020-01-23T19:44:43.564Z",
  "networkType": "ethereum",
  "devdoc": {
    "methods": {}
  },
  "userdoc": {
    "methods": {}
  }
}